{
  "contractName": "HighVibeCrowdsale",
  "abi": [
    {
      "constant": true,
      "inputs": [],
      "name": "_cap",
      "outputs": [
        {
          "name": "",
          "type": "uint256"
        }
      ],
      "payable": false,
      "stateMutability": "view",
      "type": "function"
    },
    {
      "constant": true,
      "inputs": [],
      "name": "_rewardpool",
      "outputs": [
        {
          "name": "",
          "type": "address"
        }
      ],
      "payable": false,
      "stateMutability": "view",
      "type": "function"
    },
    {
      "constant": true,
      "inputs": [],
      "name": "hasClosed",
      "outputs": [
        {
          "name": "",
          "type": "bool"
        }
      ],
      "payable": false,
      "stateMutability": "view",
      "type": "function"
    },
    {
      "constant": true,
      "inputs": [],
      "name": "weiRaisedDuringPrivateSale",
      "outputs": [
        {
          "name": "",
          "type": "uint256"
        }
      ],
      "payable": false,
      "stateMutability": "view",
      "type": "function"
    },
    {
      "constant": true,
      "inputs": [],
      "name": "rate",
      "outputs": [
        {
          "name": "",
          "type": "uint256"
        }
      ],
      "payable": false,
      "stateMutability": "view",
      "type": "function"
    },
    {
      "constant": true,
      "inputs": [],
      "name": "weiRaised",
      "outputs": [
        {
          "name": "",
          "type": "uint256"
        }
      ],
      "payable": false,
      "stateMutability": "view",
      "type": "function"
    },
    {
      "constant": true,
      "inputs": [],
      "name": "closingTime",
      "outputs": [
        {
          "name": "",
          "type": "uint256"
        }
      ],
      "payable": false,
      "stateMutability": "view",
      "type": "function"
    },
    {
      "constant": false,
      "inputs": [],
      "name": "finalize",
      "outputs": [],
      "payable": false,
      "stateMutability": "nonpayable",
      "type": "function"
    },
    {
      "constant": true,
      "inputs": [],
      "name": "_companyTokens",
      "outputs": [
        {
          "name": "",
          "type": "uint256"
        }
      ],
      "payable": false,
      "stateMutability": "view",
      "type": "function"
    },
    {
      "constant": true,
      "inputs": [],
      "name": "_closingTime",
      "outputs": [
        {
          "name": "",
          "type": "uint256"
        }
      ],
      "payable": false,
      "stateMutability": "view",
      "type": "function"
    },
    {
      "constant": true,
      "inputs": [],
      "name": "wallet",
      "outputs": [
        {
          "name": "",
          "type": "address"
        }
      ],
      "payable": false,
      "stateMutability": "view",
      "type": "function"
    },
    {
      "constant": true,
      "inputs": [],
      "name": "_wallet",
      "outputs": [
        {
          "name": "",
          "type": "address"
        }
      ],
      "payable": false,
      "stateMutability": "view",
      "type": "function"
    },
    {
      "constant": false,
      "inputs": [],
      "name": "renounceOwnership",
      "outputs": [],
      "payable": false,
      "stateMutability": "nonpayable",
      "type": "function"
    },
    {
      "constant": true,
      "inputs": [],
      "name": "_rate",
      "outputs": [
        {
          "name": "",
          "type": "uint256"
        }
      ],
      "payable": false,
      "stateMutability": "view",
      "type": "function"
    },
    {
      "constant": true,
      "inputs": [],
      "name": "isFinalized",
      "outputs": [
        {
          "name": "",
          "type": "bool"
        }
      ],
      "payable": false,
      "stateMutability": "view",
      "type": "function"
    },
    {
      "constant": true,
      "inputs": [],
      "name": "owner",
      "outputs": [
        {
          "name": "",
          "type": "address"
        }
      ],
      "payable": false,
      "stateMutability": "view",
      "type": "function"
    },
    {
      "constant": true,
      "inputs": [],
      "name": "openingTime",
      "outputs": [
        {
          "name": "",
          "type": "uint256"
        }
      ],
      "payable": false,
      "stateMutability": "view",
      "type": "function"
    },
    {
      "constant": true,
      "inputs": [],
      "name": "_hvToken",
      "outputs": [
        {
          "name": "",
          "type": "address"
        }
      ],
      "payable": false,
      "stateMutability": "view",
      "type": "function"
    },
    {
      "constant": false,
      "inputs": [
        {
          "name": "_beneficiary",
          "type": "address"
        }
      ],
      "name": "buyTokens",
      "outputs": [],
      "payable": true,
      "stateMutability": "payable",
      "type": "function"
    },
    {
      "constant": false,
      "inputs": [
        {
          "name": "_newOwner",
          "type": "address"
        }
      ],
      "name": "transferOwnership",
      "outputs": [],
      "payable": false,
      "stateMutability": "nonpayable",
      "type": "function"
    },
    {
      "constant": true,
      "inputs": [],
      "name": "_openingTime",
      "outputs": [
        {
          "name": "",
          "type": "uint256"
        }
      ],
      "payable": false,
      "stateMutability": "view",
      "type": "function"
    },
    {
      "constant": true,
      "inputs": [],
      "name": "token",
      "outputs": [
        {
          "name": "",
          "type": "address"
        }
      ],
      "payable": false,
      "stateMutability": "view",
      "type": "function"
    },
    {
      "inputs": [
        {
          "name": "_token",
          "type": "address"
        }
      ],
      "payable": false,
      "stateMutability": "nonpayable",
      "type": "constructor"
    },
    {
      "payable": true,
      "stateMutability": "payable",
      "type": "fallback"
    },
    {
      "anonymous": false,
      "inputs": [],
      "name": "Finalized",
      "type": "event"
    },
    {
      "anonymous": false,
      "inputs": [
        {
          "indexed": true,
          "name": "purchaser",
          "type": "address"
        },
        {
          "indexed": true,
          "name": "beneficiary",
          "type": "address"
        },
        {
          "indexed": false,
          "name": "value",
          "type": "uint256"
        },
        {
          "indexed": false,
          "name": "amount",
          "type": "uint256"
        }
      ],
      "name": "TokenPurchase",
      "type": "event"
    },
    {
      "anonymous": false,
      "inputs": [
        {
          "indexed": true,
          "name": "previousOwner",
          "type": "address"
        }
      ],
      "name": "OwnershipRenounced",
      "type": "event"
    },
    {
      "anonymous": false,
      "inputs": [
        {
          "indexed": true,
          "name": "previousOwner",
          "type": "address"
        },
        {
          "indexed": true,
          "name": "newOwner",
          "type": "address"
        }
      ],
      "name": "OwnershipTransferred",
      "type": "event"
    },
    {
      "constant": false,
      "inputs": [
        {
          "name": "_newAddress",
          "type": "address"
        }
      ],
      "name": "setToken",
      "outputs": [],
      "payable": false,
      "stateMutability": "nonpayable",
      "type": "function"
    },
    {
      "constant": true,
      "inputs": [],
      "name": "getToken",
      "outputs": [
        {
          "name": "",
          "type": "address"
        }
      ],
      "payable": false,
      "stateMutability": "view",
      "type": "function"
    },
    {
      "constant": true,
      "inputs": [],
      "name": "getTotalFundsRaised",
      "outputs": [
        {
          "name": "",
          "type": "uint256"
        }
      ],
      "payable": false,
      "stateMutability": "view",
      "type": "function"
    },
    {
      "constant": true,
      "inputs": [],
      "name": "getRate",
      "outputs": [
        {
          "name": "rate",
          "type": "uint256"
        }
      ],
      "payable": false,
      "stateMutability": "view",
      "type": "function"
    }
  ],
  "bytecode": "0x60806040526000600760006101000a81548160ff0219169083151502179055506b19d971e4fe8401e74000000060085573e1e55f6a87e1a7108dc2e80b730f7d0485067107601160006101000a81548173ffffffffffffffffffffffffffffffffffffffff021916908373ffffffffffffffffffffffffffffffffffffffff16021790555034801561009057600080fd5b506040516020806200185883398101806040528101908080519060200190929190505050600954600a54600c54601160009054906101000a900473ffffffffffffffffffffffffffffffffffffffff1684336000806101000a81548173ffffffffffffffffffffffffffffffffffffffff021916908373ffffffffffffffffffffffffffffffffffffffff16021790555060008311151561013057600080fd5b600073ffffffffffffffffffffffffffffffffffffffff168273ffffffffffffffffffffffffffffffffffffffff161415151561016c57600080fd5b600073ffffffffffffffffffffffffffffffffffffffff168173ffffffffffffffffffffffffffffffffffffffff16141515156101a857600080fd5b8260038190555081600260006101000a81548173ffffffffffffffffffffffffffffffffffffffff021916908373ffffffffffffffffffffffffffffffffffffffff16021790555080600160006101000a81548173ffffffffffffffffffffffffffffffffffffffff021916908373ffffffffffffffffffffffffffffffffffffffff16021790555050505042821015151561024357600080fd5b81811015151561025257600080fd5b8160058190555080600681905550505080601460006101000a81548173ffffffffffffffffffffffffffffffffffffffff021916908373ffffffffffffffffffffffffffffffffffffffff160217905550601460009054906101000a900473ffffffffffffffffffffffffffffffffffffffff1673ffffffffffffffffffffffffffffffffffffffff166340c10f19601160009054906101000a900473ffffffffffffffffffffffffffffffffffffffff166012546040518363ffffffff167c0100000000000000000000000000000000000000000000000000000000028152600401808373ffffffffffffffffffffffffffffffffffffffff1673ffffffffffffffffffffffffffffffffffffffff16815260200182815260200192505050602060405180830381600087803b15801561038c57600080fd5b505af11580156103a0573d6000803e3d6000fd5b505050506040513d60208110156103b657600080fd5b810190808051906020019092919050505050601460009054906101000a900473ffffffffffffffffffffffffffffffffffffffff1673ffffffffffffffffffffffffffffffffffffffff16638456cb596040518163ffffffff167c0100000000000000000000000000000000000000000000000000000000028152600401600060405180830381600087803b15801561044e57600080fd5b505af1158015610462573d6000803e3d6000fd5b50505050506113e180620004776000396000f300608060405260043610610154576000357c0100000000000000000000000000000000000000000000000000000000900463ffffffff168063060cf4e81461015f5780630c3e2d2d1461018a5780630f06b436146101b5578063144fa6d71461020c5780631515bc2b1461024f57806315970cae1461027e57806321df0da7146102a95780632c4e722e146103005780634042b66f1461032b5780634b6753bc146103565780634bb278f3146103815780634d6ed5ea146103985780634ff9448e146103c3578063521eb273146103ee578063610757e414610445578063679aefce1461049c578063715018a6146104c757806383bebced146104de5780638d4e4083146105095780638da5cb5b14610538578063b7a8807c1461058f578063e957215f146105ba578063ec8ac4d814610611578063f2fde38b14610647578063f853edb41461068a578063fc0c546a146106b5575b61015d3361070c565b005b34801561016b57600080fd5b506101746107da565b6040518082815260200191505060405180910390f35b34801561019657600080fd5b5061019f6107e0565b6040518082815260200191505060405180910390f35b3480156101c157600080fd5b506101ca6107fe565b604051808273ffffffffffffffffffffffffffffffffffffffff1673ffffffffffffffffffffffffffffffffffffffff16815260200191505060405180910390f35b34801561021857600080fd5b5061024d600480360381019080803573ffffffffffffffffffffffffffffffffffffffff169060200190929190505050610824565b005b34801561025b57600080fd5b506102646108c3565b604051808215151515815260200191505060405180910390f35b34801561028a57600080fd5b506102936108cf565b6040518082815260200191505060405180910390f35b3480156102b557600080fd5b506102be6108d5565b604051808273ffffffffffffffffffffffffffffffffffffffff1673ffffffffffffffffffffffffffffffffffffffff16815260200191505060405180910390f35b34801561030c57600080fd5b506103156108ff565b6040518082815260200191505060405180910390f35b34801561033757600080fd5b50610340610905565b6040518082815260200191505060405180910390f35b34801561036257600080fd5b5061036b61090b565b6040518082815260200191505060405180910390f35b34801561038d57600080fd5b50610396610911565b005b3480156103a457600080fd5b506103ad6109ec565b6040518082815260200191505060405180910390f35b3480156103cf57600080fd5b506103d86109f2565b6040518082815260200191505060405180910390f35b3480156103fa57600080fd5b506104036109f8565b604051808273ffffffffffffffffffffffffffffffffffffffff1673ffffffffffffffffffffffffffffffffffffffff16815260200191505060405180910390f35b34801561045157600080fd5b5061045a610a1e565b604051808273ffffffffffffffffffffffffffffffffffffffff1673ffffffffffffffffffffffffffffffffffffffff16815260200191505060405180910390f35b3480156104a857600080fd5b506104b1610a44565b6040518082815260200191505060405180910390f35b3480156104d357600080fd5b506104dc610af3565b005b3480156104ea57600080fd5b506104f3610bf5565b6040518082815260200191505060405180910390f35b34801561051557600080fd5b5061051e610bfb565b604051808215151515815260200191505060405180910390f35b34801561054457600080fd5b5061054d610c0e565b604051808273ffffffffffffffffffffffffffffffffffffffff1673ffffffffffffffffffffffffffffffffffffffff16815260200191505060405180910390f35b34801561059b57600080fd5b506105a4610c33565b6040518082815260200191505060405180910390f35b3480156105c657600080fd5b506105cf610c39565b604051808273ffffffffffffffffffffffffffffffffffffffff1673ffffffffffffffffffffffffffffffffffffffff16815260200191505060405180910390f35b610645600480360381019080803573ffffffffffffffffffffffffffffffffffffffff16906020019092919050505061070c565b005b34801561065357600080fd5b50610688600480360381019080803573ffffffffffffffffffffffffffffffffffffffff169060200190929190505050610c5f565b005b34801561069657600080fd5b5061069f610cc6565b6040518082815260200191505060405180910390f35b3480156106c157600080fd5b506106ca610ccc565b604051808273ffffffffffffffffffffffffffffffffffffffff1673ffffffffffffffffffffffffffffffffffffffff16815260200191505060405180910390f35b60008034915061071c8383610cf2565b61072582610d1f565b905061073c82600454610d4290919063ffffffff16565b60048190555061074c8382610d5e565b8273ffffffffffffffffffffffffffffffffffffffff163373ffffffffffffffffffffffffffffffffffffffff167f623b3804fa71d67900d064613da8f94b9617215ee90799290593e1745087ad188484604051808381526020018281526020019250505060405180910390a36107c38383610d6c565b6107cb610d70565b6107d58383610ddb565b505050565b60085481565b60006107f9600454600b54610d4290919063ffffffff16565b905090565b601360009054906101000a900473ffffffffffffffffffffffffffffffffffffffff1681565b6000809054906101000a900473ffffffffffffffffffffffffffffffffffffffff1673ffffffffffffffffffffffffffffffffffffffff163373ffffffffffffffffffffffffffffffffffffffff1614151561087f57600080fd5b80601460006101000a81548173ffffffffffffffffffffffffffffffffffffffff021916908373ffffffffffffffffffffffffffffffffffffffff16021790555050565b60006006544211905090565b600b5481565b6000601460009054906101000a900473ffffffffffffffffffffffffffffffffffffffff16905090565b60035481565b60045481565b60065481565b6000809054906101000a900473ffffffffffffffffffffffffffffffffffffffff1673ffffffffffffffffffffffffffffffffffffffff163373ffffffffffffffffffffffffffffffffffffffff1614151561096c57600080fd5b600760009054906101000a900460ff1615151561098857600080fd5b6109906108c3565b151561099b57600080fd5b6109a3610ddf565b7f6823b073d48d6e3a7d385eeb601452d680e74bb46afe3255a7d778f3a9b1768160405160405180910390a16001600760006101000a81548160ff021916908315150217905550565b60125481565b600a5481565b600260009054906101000a900473ffffffffffffffffffffffffffffffffffffffff1681565b601160009054906101000a900473ffffffffffffffffffffffffffffffffffffffff1681565b6000610a5e62093a80600954610d4290919063ffffffff16565b421015610a6f57600d549050610af0565b610a8762127500600954610d4290919063ffffffff16565b421015610a9857600e549050610af0565b610ab0621baf80600954610d4290919063ffffffff16565b421015610ac157600f549050610af0565b610ad96224ea00600954610d4290919063ffffffff16565b421015610aea576010549050610af0565b600c5490505b90565b6000809054906101000a900473ffffffffffffffffffffffffffffffffffffffff1673ffffffffffffffffffffffffffffffffffffffff163373ffffffffffffffffffffffffffffffffffffffff16141515610b4e57600080fd5b6000809054906101000a900473ffffffffffffffffffffffffffffffffffffffff1673ffffffffffffffffffffffffffffffffffffffff167ff8df31144d9c2f0f6b59d69b8b98abd5459d07f2742c4df920b25aae33c6482060405160405180910390a260008060006101000a81548173ffffffffffffffffffffffffffffffffffffffff021916908373ffffffffffffffffffffffffffffffffffffffff160217905550565b600c5481565b600760009054906101000a900460ff1681565b6000809054906101000a900473ffffffffffffffffffffffffffffffffffffffff1681565b60055481565b601460009054906101000a900473ffffffffffffffffffffffffffffffffffffffff1681565b6000809054906101000a900473ffffffffffffffffffffffffffffffffffffffff1673ffffffffffffffffffffffffffffffffffffffff163373ffffffffffffffffffffffffffffffffffffffff16141515610cba57600080fd5b610cc3816110d9565b50565b60095481565b600160009054906101000a900473ffffffffffffffffffffffffffffffffffffffff1681565b6005544210158015610d0657506006544211155b1515610d1157600080fd5b610d1b82826111d3565b5050565b6000610d3b610d2c610a44565b8361122390919063ffffffff16565b9050919050565b60008183019050828110151515610d5557fe5b80905092915050565b610d68828261125b565b5050565b5050565b600260009054906101000a900473ffffffffffffffffffffffffffffffffffffffff1673ffffffffffffffffffffffffffffffffffffffff166108fc349081150290604051600060405180830381858888f19350505050158015610dd8573d6000803e3d6000fd5b50565b5050565b6000809054906101000a900473ffffffffffffffffffffffffffffffffffffffff1673ffffffffffffffffffffffffffffffffffffffff163373ffffffffffffffffffffffffffffffffffffffff16141515610e3a57600080fd5b610e426112ac565b601460009054906101000a900473ffffffffffffffffffffffffffffffffffffffff1673ffffffffffffffffffffffffffffffffffffffff16633f4ba83a6040518163ffffffff167c0100000000000000000000000000000000000000000000000000000000028152600401600060405180830381600087803b158015610ec857600080fd5b505af1158015610edc573d6000803e3d6000fd5b50505050601460009054906101000a900473ffffffffffffffffffffffffffffffffffffffff1673ffffffffffffffffffffffffffffffffffffffff166340c10f19601360009054906101000a900473ffffffffffffffffffffffffffffffffffffffff16611016601460009054906101000a900473ffffffffffffffffffffffffffffffffffffffff1673ffffffffffffffffffffffffffffffffffffffff166318160ddd6040518163ffffffff167c0100000000000000000000000000000000000000000000000000000000028152600401602060405180830381600087803b158015610fca57600080fd5b505af1158015610fde573d6000803e3d6000fd5b505050506040513d6020811015610ff457600080fd5b81019080805190602001909291905050506008546112ae90919063ffffffff16565b6040518363ffffffff167c0100000000000000000000000000000000000000000000000000000000028152600401808373ffffffffffffffffffffffffffffffffffffffff1673ffffffffffffffffffffffffffffffffffffffff16815260200182815260200192505050602060405180830381600087803b15801561109b57600080fd5b505af11580156110af573d6000803e3d6000fd5b505050506040513d60208110156110c557600080fd5b810190808051906020019092919050505050565b600073ffffffffffffffffffffffffffffffffffffffff168173ffffffffffffffffffffffffffffffffffffffff161415151561111557600080fd5b8073ffffffffffffffffffffffffffffffffffffffff166000809054906101000a900473ffffffffffffffffffffffffffffffffffffffff1673ffffffffffffffffffffffffffffffffffffffff167f8be0079c531659141344cd1fd0a4f28419497f9722a3daafe3b4186f6b6457e060405160405180910390a3806000806101000a81548173ffffffffffffffffffffffffffffffffffffffff021916908373ffffffffffffffffffffffffffffffffffffffff16021790555050565b600073ffffffffffffffffffffffffffffffffffffffff168273ffffffffffffffffffffffffffffffffffffffff161415151561120f57600080fd5b6000811415151561121f57600080fd5b5050565b6000808314156112365760009050611255565b818302905081838281151561124757fe5b0414151561125157fe5b8090505b92915050565b6112a88282600160009054906101000a900473ffffffffffffffffffffffffffffffffffffffff1673ffffffffffffffffffffffffffffffffffffffff166112c79092919063ffffffff16565b5050565b565b60008282111515156112bc57fe5b818303905092915050565b8273ffffffffffffffffffffffffffffffffffffffff1663a9059cbb83836040518363ffffffff167c0100000000000000000000000000000000000000000000000000000000028152600401808373ffffffffffffffffffffffffffffffffffffffff1673ffffffffffffffffffffffffffffffffffffffff16815260200182815260200192505050602060405180830381600087803b15801561136a57600080fd5b505af115801561137e573d6000803e3d6000fd5b505050506040513d602081101561139457600080fd5b810190808051906020019092919050505015156113b057600080fd5b5050505600a165627a7a723058202888d9a46a84dbef80ca35c26ba9b4b81c6bfd8f652c2e2e1fe883983f142bec0029",
  "source": "pragma solidity ^0.4.24;\r\n\r\nimport './HighVibeToken.sol';\r\nimport './crowdsale/distribution/FinalizableCrowdsale.sol';\r\n\r\ncontract HighVibeCrowdsale is FinalizableCrowdsale {\r\n\r\n    uint256 public _cap = 8000000000 ether; // total initial supply of tokens\r\n    uint256 public _openingTime; // TBA: Nov 11, 2018\r\n    uint256 public _closingTime; // TBA: Jan 11, 2019\r\n\r\n    uint256 public weiRaisedDuringPrivateSale; // TBA\r\n\r\n    uint256 public _rate;  // TBA: ETH to HV token conversion rate after last tranche.\r\n    uint256 _tranche1;     // TBA: ETH to HV token conversion rate for tranche 1.\r\n    uint256 _tranche2;     // TBA: ETH to HV token conversion rate for tranche 2.\r\n    uint256 _tranche3;     // TBA: ETH to HV token conversion rate for tranche 3.\r\n    uint256 _tranche4;     // TBA: ETH to HV token conversion rate for tranche 4.\r\n\r\n    // HighVibe company wallet address where funds from the crowdsale will be sent to.\r\n    address public _wallet = 0xE1E55F6A87e1a7108Dc2E80b730f7D0485067107; \r\n    // initial allocation of company tokens\r\n    uint256 public _companyTokens; \r\n\r\n    // Reward pool address\r\n    address public _rewardpool; // TBA\r\n    \r\n    // HighVibe token smart contract address\r\n    HighVibeToken public _hvToken;\r\n\r\n    constructor(\r\n            HighVibeToken _token\r\n        )\r\n        public\r\n        Crowdsale(_rate, _wallet, _token)\r\n        TimedCrowdsale(_openingTime, _closingTime) {\r\n\r\n        _hvToken = _token;\r\n\r\n        // mint company tokens\r\n        _hvToken.mint(_wallet, _companyTokens);\r\n        \r\n        // prevent token holders from selling during the public sale (i.e. disable transfers)\r\n        _hvToken.pause();\r\n    }\r\n\r\n    function pause() internal onlyOwner {\r\n        _hvToken.pause();\r\n    }\r\n\r\n    function unpause() internal onlyOwner {\r\n        _hvToken.unpause();\r\n    }\r\n\r\n    // set address of HighVibe token smart contract.\r\n    function setToken(address _newAddress) public onlyOwner {\r\n        _hvToken = HighVibeToken(_newAddress);\r\n    }\r\n\r\n    // return the address of the HighVibe token smart contract.\r\n    function getToken() public view returns (address) {\r\n        return address(_hvToken);\r\n    }\r\n\r\n    // determine conversion from wei to tokens\r\n    function _getTokenAmount(uint256 _weiAmount) internal view returns (uint256)\r\n    {\r\n        return _weiAmount.mul(getRate());\r\n    }\r\n\r\n    // computes total raised from private sale and public sale so far.\r\n    function getTotalFundsRaised() public view returns (uint256) {\r\n        return weiRaisedDuringPrivateSale.add(weiRaised);\r\n    }\r\n\r\n    // returns conversion rate of HV tokens per 1 ETH according to the tranches (based on time).\r\n    function getRate() public view returns (uint256 rate) {\r\n        if (now < (_openingTime.add(1 weeks))) { return _tranche1; }\r\n        if (now < (_openingTime.add(2 weeks))) { return _tranche2; }\r\n        if (now < (_openingTime.add(3 weeks))) { return _tranche3; }\r\n        if (now < (_openingTime.add(4 weeks))) { return _tranche4; }\r\n\r\n        return _rate;\r\n    }\r\n\r\n    function finalization() internal onlyOwner {\r\n        super.finalization();\r\n\r\n        // allow token holders to sell their tokens (i.e. enable transfers)\r\n        _hvToken.unpause();\r\n\r\n        // mint remaining unsold tokens to reward pool\r\n        _hvToken.mint(_rewardpool, _cap.sub(_hvToken.totalSupply()));\r\n    }\r\n}",
  "sourcePath": "/Users/rmaximo/Documents/GitHub/highvibe/Tokens/contracts/HighVibeCrowdsale.sol",
  "compiler": {
    "name": "solc",
    "version": "0.4.24+commit.e67f0147.Emscripten.clang"
  },
  "schemaVersion": "2.0.1",
  "updatedAt": "2019-01-15T20:09:26.506Z"
}